{
    "contractName": "Arena",
    "abi": [
        {
            "inputs": [
                {
                    "internalType": "string",
                    "name": "_name",
                    "type": "string"
                },
                {
                    "internalType": "address",
                    "name": "_token",
                    "type": "address"
                },
                {
                    "internalType": "uint256",
                    "name": "_minContribAmount",
                    "type": "uint256"
                },
                {
                    "internalType": "uint16",
                    "name": "_maxChoiceFeePercentage",
                    "type": "uint16"
                },
                {
                    "internalType": "uint16",
                    "name": "_maxTopicFeePercentage",
                    "type": "uint16"
                },
                {
                    "internalType": "uint16",
                    "name": "_arenaFeePercentage",
                    "type": "uint16"
                },
                {
                    "internalType": "uint256",
                    "name": "_choiceCreationFee",
                    "type": "uint256"
                },
                {
                    "internalType": "uint256",
                    "name": "_topicCreationFee",
                    "type": "uint256"
                }
            ],
            "stateMutability": "nonpayable",
            "type": "constructor"
        },
        {
            "inputs": [],
            "name": "arenaFeePercentage",
            "outputs": [
                {
                    "internalType": "uint16",
                    "name": "",
                    "type": "uint16"
                }
            ],
            "stateMutability": "view",
            "type": "function"
        },
        {
            "inputs": [],
            "name": "choiceCreationFee",
            "outputs": [
                {
                    "internalType": "uint256",
                    "name": "",
                    "type": "uint256"
                }
            ],
            "stateMutability": "view",
            "type": "function"
        },
        {
            "inputs": [],
            "name": "info",
            "outputs": [
                {
                    "internalType": "string",
                    "name": "",
                    "type": "string"
                },
                {
                    "internalType": "address",
                    "name": "",
                    "type": "address"
                },
                {
                    "internalType": "uint256",
                    "name": "",
                    "type": "uint256"
                },
                {
                    "internalType": "uint16",
                    "name": "",
                    "type": "uint16"
                },
                {
                    "internalType": "uint16",
                    "name": "",
                    "type": "uint16"
                },
                {
                    "internalType": "uint16",
                    "name": "",
                    "type": "uint16"
                },
                {
                    "internalType": "uint256",
                    "name": "",
                    "type": "uint256"
                },
                {
                    "internalType": "uint256",
                    "name": "",
                    "type": "uint256"
                }
            ],
            "stateMutability": "view",
            "type": "function"
        },
        {
            "inputs": [],
            "name": "maxChoiceFeePercentage",
            "outputs": [
                {
                    "internalType": "uint16",
                    "name": "",
                    "type": "uint16"
                }
            ],
            "stateMutability": "view",
            "type": "function"
        },
        {
            "inputs": [],
            "name": "maxTopicFeePercentage",
            "outputs": [
                {
                    "internalType": "uint16",
                    "name": "",
                    "type": "uint16"
                }
            ],
            "stateMutability": "view",
            "type": "function"
        },
        {
            "inputs": [],
            "name": "minContributionAmount",
            "outputs": [
                {
                    "internalType": "uint256",
                    "name": "",
                    "type": "uint256"
                }
            ],
            "stateMutability": "view",
            "type": "function"
        },
        {
            "inputs": [],
            "name": "name",
            "outputs": [
                {
                    "internalType": "string",
                    "name": "",
                    "type": "string"
                }
            ],
            "stateMutability": "view",
            "type": "function"
        },
        {
            "inputs": [],
            "name": "token",
            "outputs": [
                {
                    "internalType": "address",
                    "name": "",
                    "type": "address"
                }
            ],
            "stateMutability": "view",
            "type": "function"
        },
        {
            "inputs": [],
            "name": "topicCreationFee",
            "outputs": [
                {
                    "internalType": "uint256",
                    "name": "",
                    "type": "uint256"
                }
            ],
            "stateMutability": "view",
            "type": "function"
        }
    ],
    "bytecode": "608060405234801561001057600080fd5b5060405161078c38038061078c83398101604081905261002f916101e9565b6127108361ffff1611156100895760405162461bcd60e51b815260206004820152601760248201527f4172656e61206665652065786365656465642031303025000000000000000000604482015260640160405180910390fd5b875161009c9060009060208b019061010c565b50600180546001600160a01b0319166001600160a01b0398909816979097179096556002949094556003805461ffff94851663ffffffff199091161762010000938516939093029290921761ffff60201b1916640100000000919093160291909117905560045560055550610353565b82805461011890610319565b90600052602060002090601f01602090048101928261013a5760008555610180565b82601f1061015357805160ff1916838001178555610180565b82800160010185558215610180579182015b82811115610180578251825591602001919060010190610165565b5061018c929150610190565b5090565b5b8082111561018c5760008155600101610191565b634e487b7160e01b600052604160045260246000fd5b80516001600160a01b03811681146101d257600080fd5b919050565b805161ffff811681146101d257600080fd5b600080600080600080600080610100898b03121561020657600080fd5b88516001600160401b038082111561021d57600080fd5b818b0191508b601f83011261023157600080fd5b815181811115610243576102436101a5565b604051601f8201601f19908116603f0116810190838211818310171561026b5761026b6101a5565b81604052828152602093508e8484870101111561028757600080fd5b600091505b828210156102a9578482018401518183018501529083019061028c565b828211156102ba5760008484830101525b9b506102ca9150508b82016101bb565b98505050604089015195506102e160608a016101d7565b94506102ef60808a016101d7565b93506102fd60a08a016101d7565b60c08a015160e0909a0151989b979a5095989497939692505050565b600181811c9082168061032d57607f821691505b60208210810361034d57634e487b7160e01b600052602260045260246000fd5b50919050565b61042a806103626000396000f3fe608060405234801561001057600080fd5b50600436106100935760003560e01c806331ad7d591161006657806331ad7d5914610104578063370158ea1461010d57806345d5149f14610129578063ad3899fd14610132578063fc0c546a1461014657600080fd5b806306fdde03146100985780630a68bbac146100b65780631b765006146100d75780631b984876146100ee575b600080fd5b6100a0610171565b6040516100ad9190610344565b60405180910390f35b6003546100c49061ffff1681565b60405161ffff90911681526020016100ad565b6100e060055481565b6040519081526020016100ad565b6003546100c490640100000000900461ffff1681565b6100e060045481565b6101156101ff565b6040516100ad98979695949392919061035e565b6100e060025481565b6003546100c49062010000900461ffff1681565b600154610159906001600160a01b031681565b6040516001600160a01b0390911681526020016100ad565b6000805461017e906103ba565b80601f01602080910402602001604051908101604052809291908181526020018280546101aa906103ba565b80156101f75780601f106101cc576101008083540402835291602001916101f7565b820191906000526020600020905b8154815290600101906020018083116101da57829003601f168201915b505050505081565b60015460025460035460045460055460008054606096919586958695869586958695869586956001600160a01b0390931694909361ffff80851694620100008104821694640100000000909104909116929190889061025d906103ba565b80601f0160208091040260200160405190810160405280929190818152602001828054610289906103ba565b80156102d65780601f106102ab576101008083540402835291602001916102d6565b820191906000526020600020905b8154815290600101906020018083116102b957829003601f168201915b50505050509750975097509750975097509750975097509091929394959697565b6000815180845260005b8181101561031d57602081850181015186830182015201610301565b8181111561032f576000602083870101525b50601f01601f19169290920160200192915050565b60208152600061035760208301846102f7565b9392505050565b60006101008083526103728184018c6102f7565b6001600160a01b039a909a1660208401525050604081019690965261ffff94851660608701529284166080860152921660a084015260c083019190915260e090910152919050565b600181811c908216806103ce57607f821691505b6020821081036103ee57634e487b7160e01b600052602260045260246000fd5b5091905056fea264697066735822122009c6368c63372c918f209cf53d0df687e42b3e750036d6cb237ead6d7f1ef6e364736f6c634300080d0033",
    "sourcePath": "/home/spsina/dev/at/contracts/Arena.sol",
    "compiler": {
        "name": "solc",
        "version": "0.8.13+commit.abaa5c0e"
    },
    "functionHashes": {
        "arenaFeePercentage()": "1b984876",
        "choiceCreationFee()": "31ad7d59",
        "info()": "370158ea",
        "maxChoiceFeePercentage()": "0a68bbac",
        "maxTopicFeePercentage()": "ad3899fd",
        "minContributionAmount()": "45d5149f",
        "name()": "06fdde03",
        "token()": "fc0c546a",
        "topicCreationFee()": "1b765006"
    },
    "gasEstimates": {
        "creation": {
            "codeDepositCost": "213200",
            "executionCost": "infinite",
            "totalCost": "infinite"
        },
        "external": {
            "arenaFeePercentage()": "2391",
            "choiceCreationFee()": "2295",
            "info()": "infinite",
            "maxChoiceFeePercentage()": "2336",
            "maxTopicFeePercentage()": "2390",
            "minContributionAmount()": "2339",
            "name()": "infinite",
            "token()": "2425",
            "topicCreationFee()": "2340"
        }
    }
}